:020000040000FA
:060000000A128A11EE2F26
:100F0A008316031388150815080083160317890129
:100F1A0083160313860183120313860108008316BE
:100F2A0003138812081388138312031388120813F1
:100F3A00881308003F3406345B344F3466346D340A
:100F4A007D3407347F346F3477347C3439345E34FB
:100F5A00793471347E088A007F0882000A128A1165
:100F6A00AF270A128A118000840A04087D06031931
:100F7A000034FF0A0319FE0AB32FF001F101DC2F36
:100F8A00DC2F0A128A1185270A128A110A128A117B
:100F9A0094270A128A110A128A118A270A128A11B6
:100FAA000130F0000030F100DC2FDC2FDC2F71085B
:100FBA00003A0319E12FDC2F7008003A0319C62FF3
:100FCA00013A0319DC2FDC2FDC2FDC2F0A128A11DD
:100FDA00002883133030FD000730FE009F30FF00E9
:100FEA00203084000A128A11B3270A128A11830157
:060FFA000A128A11C22F49
:04400E00D4E0FFFFFC
:00000001FF
